:100000000C948E000C94B6000C94B6000C946E0701
:100010000C946E070C946E070C94B6000C94E205D9
:100020000C94B6000C94B6000C94B6000C94D50A4F
:100030000C94B6000C94B6000C94B6000C94B60068
:100040000C94D70D0C94B6000C94B0050C948A0552
:100050000C94B6000C94B6000C94B6000C94B60048
:100060000C94E8070C94B60019161C1623162616D5
:1000700029162C162F167E16821688168E169416A2
:100080009A16A016A616B917C117D717EB17FF17A0
:1000900019182D183D1857186118751887181D2341
:1000A000292326232C2320232323292326232C23FF
:1000B000E5233324A224E6241E256225A62500007C
:1000C0000000240027002A000000000800020100B0
:1000D0000003040700000000000000000000000012
:1000E00023002600290000000000250028002B0026
:1000F00004040404040404040202020202020303CE
:1001000003030303010204081020408001020408D5
:100110001020010204081020D027CC2711241FBE74
:10012000CFEFD8E0DEBFCDBF12E0A0E0B1E0E0EB62
:10013000F7E602C005900D92A83AB107D9F725E07D
:10014000A8EAB2E001C01D92A03DB207E1F710E0BD
:10015000CDE8D0E004C02197FE010E945431CC3894
:10016000D107C9F70E94660E0C94CB330C940000A3
:10017000833081F028F4813099F08230A1F0089525
:100180008730A9F08830B9F08430D1F480918000B4
:100190008F7D03C0809180008F77809380000895C9
:1001A00084B58F7702C084B58F7D84BD089580911A
:1001B000B0008F7703C08091B0008F7D8093B00036
:1001C00008959091BE059111FCCF91E09093BE05EA
:1001D0009093BD052FEF2093DD031092DC03260FD3
:1001E0002093DB039093DA039091DA03880F892B35
:1001F0008093DA038091BC05813061F41092BC05D4
:100200008091DA038093BB008091BC0083FDF8CF1E
:1002100085EC01C085EE8093BC008091BE058130E5
:10022000E1F38091DC03861710F46091DC03AAEB04
:10023000B3E0EAE9F3E080E0861721F09D91919325
:100240008F5FFACF0895CF93DF9397FF03C00E948B
:10025000380C03C04AE00E94F50BEC016CEA71E037
:100260008AEA94E00E94960B8C0F9D1FDF91CF913C
:1002700008950F931F9390E0FC01EC5FFE4F749183
:10028000FC01E051FF4FE491662311F0672F01C09C
:1002900060E0F0E0EE0FFF1FE452FF4F8591949174
:1002A00089019A013F70462F672F0E94210E611528
:1002B00071058105910549F0DC01CB010196A11D75
:1002C000B11DBC01CD019F7003C060E070E0CB01A7
:1002D0001F910F910895CF93DF93282F30E0F901FC
:1002E000E853FF4F8491F901EC5FFE4FD491F9017F
:1002F000E051FF4FC491CC2391F081110E94B800CE
:10030000EC2FF0E0EE0FFF1FE452FF4FA591B491E8
:10031000EC91ED2381E090E021F480E002C080E0E8
:1003200090E0DF91CF9108951F93CF93DF93282F13
:1003300030E0F901E853FF4F8491F901EC5FFE4F83
:10034000D491F901E051FF4FC491CC23C1F0162F95
:1003500081110E94B800EC2FF0E0EE0FFF1FEA5170
:10036000FF4FA591B4919FB7F894111104C08C91DF
:10037000D095D82302C0EC91DE2BDC939FBFDF9198
:10038000CF911F910895CF93DF9390E0FC01EC5F34
:10039000FE4F2491FC01E051FF4F8491882361F1CD
:1003A00090E0880F991FFC01E254FF4FC591D49152
:1003B000FC01EA51FF4FA591B491611109C09FB7AB
:1003C000F8948881209582238883EC912E230BC09A
:1003D000623061F49FB7F8948881322F309583237F
:1003E0008883EC912E2B2C939FBF06C08FB7F89477
:1003F000E8812E2B28838FBFDF91CF9108951F9323
:10040000CF93DF93182FEB0161E00E94C301209787
:1004100011F460E004C0CF3FD10539F461E0812FD1
:10042000DF91CF911F910C949401E12FF0E0E853FC
:10043000FF4FE491E330F9F048F4E130B9F0E230F5
:10044000A1F584B5806284BDC8BD34C0E730E9F051
:10045000E83019F1E43049F58091800080628093A2
:100460008000D0938B00C0938A0024C084B580683C
:1004700084BDC7BD1FC080918000806880938000CC
:10048000D0938900C093880015C08091B000806827
:100490008093B000C093B3000DC08091B000806223
:1004A0008093B000C093B40005C0C038D1050CF0F3
:1004B000B5CFAFCFDF91CF911F910895EF92FF920B
:1004C0000F931F93CF93DF93CDB7DEB762970FB62D
:1004D000F894DEBF0FBECDBF7C018B0162EF71E0EF
:1004E000CE0101960E94450562EF71E0CE010796AC
:1004F0000E944505B801CE010D960E942B05AE0164
:10050000435F5F4F62E070E0CE0101960E94DA0C1B
:10051000CE010D960E942605BE016F5F7F4FCE0172
:100520000D960E942B05CE010D960E94AB0B8C01FF
:10053000CE010D960E9426051E141F0464F0802F24
:100540000E946B010E94590C6CE271E080E090E027
:100550000E94910D0AC017FF04C060E0802F8195B2
:1005600002C061E0802F0E949401CE0107960E9494
:100570002605CE0101960E94260562960FB6F894D4
:10058000DEBF0FBECDBFDF91CF911F910F91FF90C6
:10059000EF9008950895CF92DF92EF92FF920F931C
:1005A0001F93CF93DF936C017A018B01C0E0D0E001
:1005B000CE15DF0581F0D8016D918D01D601ED9149
:1005C000FC910190F081E02DC6010995892B11F075
:1005D0002196EECF7E01C701DF91CF911F910F9140
:1005E000FF90EF90DF90CF900895FC01538D448DE4
:1005F000252F30E0842F90E0821B930B541710F0CE
:10060000CF96089501970895FC01918D828D9817DA
:1006100061F0828DDF01A80FB11D5D968C91928DE6
:100620009F5F9F73928F90E008958FEF9FEF0895E3
:10063000FC01918D828D981731F0828DE80FF11DAC
:10064000858D90E008958FEF9FEF0895FC01918DC7
:10065000228D892F90E0805C9F4F821B91098F73C0
:10066000992708958AEA94E00E94260321E0892BC5
:1006700009F420E0822F0895FC01848DDF01A80F8A
:10068000B11DA35ABF4F2C91848D90E001968F73BA
:100690009927848FA689B7892C93A089B1898C91D9
:1006A000837080648C93938D848D981306C0028828
:1006B000F389E02D80818F7D80830895EF92FF92F2
:1006C0000F931F93CF93DF93EC0181E0888F9B8D75
:1006D0008C8D981305C0E889F989808185FD26C035
:1006E000F62E0B8D10E00F5F1F4F0F731127E02EBA
:1006F0008C8DE8120CC00FB607FCFACFE889F98997
:10070000808185FFF5CFCE010E943C03F1CF8B8D18
:10071000FE01E80FF11DE35AFF4FF0829FB7F894F6
:100720000B8FEA89FB89808180620AC09FB7F894A9
:10073000EE89FF896083E889F9898081837080640C
:1007400080839FBF81E090E0DF91CF911F910F9157
:10075000FF90EF900895CF93DF93EC01888D88236D
:10076000C9F0EA89FB89808185FD05C0A889B9891E
:100770008C9186FD0FC00FB607FCF5CF808185FFF9
:10078000F2CFA889B9898C9185FFEDCFCE010E9467
:100790003C03E7CFDF91CF91089580E090E0892B73
:1007A00029F00E94320381110C94000008952091D9
:1007B000A6043091A7042817390771F49091A40476
:1007C0008091A504981741F0E091A404F0E0E05274
:1007D000FC4F808190E008958FEF9FEF089508957A
:1007E0001F93CF93DF93DC015C968D919C915D9775
:1007F000009739F421E030E013963C932E93129742
:100800003BC05196ED91FC91529750962C91509788
:10081000322F30951FB75E964C915E97742F727091
:1008200041FD6095F8944081772311F0422B01C07F
:1008300043234083EC012197F1F748E0508160FFAA
:1008400002C0522B01C053235083EC012197F1F7D2
:100850006695415099F78081772319F0832380832F
:1008600002C0282B20831FBF5C968D919C915D97C1
:100870000197F1F781E090E0DF91CF911F9108950A
:100880002091A6043091A7042817390771F48091AC
:10089000A5042091A40490E0805C9F4F821B9109E5
:1008A00060E470E00E944031089580E090E0089597
:1008B0002091A6043091A70428173907B9F4909124
:1008C000A4048091A504981789F0E091A404F0E0B5
:1008D000E052FC4F80812091A40430E02F5F3F4F15
:1008E0002F7333272093A40490E008958FEF9FEF98
:1008F00008950E949333FC0124813581232B31F428
:1009000021E061157105A1F0FB0108C0FC018081A7
:1009100091816115710531F421E0FC01808188230A
:1009200039F005C00E94AC3321E0892B09F020E0AA
:10093000822F08950F931F93CF93DF938C01EB01C8
:10094000FC0180819181009739F06881798161157E
:100950007105A1F40E94443288819981F801918344
:1009600080838A819B81938382838C819D819583FF
:100970008483198218821B821A820FC0F801428177
:1009800053812C813D814217530720F30E94B533D8
:100990008C819D81F801958384831D821C82DF9167
:1009A000CF911F910F9108950F931F93CF93DF93D2
:1009B000EC0188819981009729F02A813B812617D3
:1009C000370788F48B016F5F7F4F0E94CD3200970D
:1009D00061F0998388831B830A832C813D81232BBB
:1009E00011F4FC01108281E001C080E0DF91CF9121
:1009F0001F910F910895EF92FF920F931F93CF9342
:100A0000DF93EC017B018A01BA010E94D4042881A2
:100A1000398181110DC02115310519F0C9010E94DC
:100A20004432198218821D821C821B821A8206C0DF
:100A30001D830C83B701C9010E94B533CE01DF913C
:100A4000CF911F910F91FF90EF900895FC0180814D
:100A500091810C944432FB01DC0111961C921E9290
:100A600013961C921E92129715961C921E92149722
:100A70008617970749F0608171816115710521F032
:100A8000448155810C94FB040895FC01118210826D
:100A900013821282158214826115710551F0FB01D7
:100AA00001900020E9F73197AF01461B570B0C94DA
:100AB000FB0408950F931F93CF93DF93EC010E94E3
:100AC000CB0D688779878A879B87E881F9810284C3
:100AD000F385E02DCE01099597FF17C00E94CB0D3D
:100AE000088519852A853B85DC01CB01801B910B8C
:100AF000A20BB30B0C811D812E813F8180179107C2
:100B0000A207B30710F38FEF9FEFDF91CF911F91F3
:100B10000F9108951F920F920FB60F9211242F93E9
:100B20003F934F935F936F937F938F939F93AF9375
:100B3000BF93EF93FF938AEA94E00E943C03FF91F6
:100B4000EF91BF91AF919F918F917F916F915F9145
:100B50004F913F912F910F900FBE0F901F901895BE
:100B60001F920F920FB60F9211242F938F939F9382
:100B7000EF93FF93E091BA04F091BB048081E09180
:100B8000C004F091C10482FD12C090818091C30421
:100B90008F5F8F732091C404821751F0E091C304DA
:100BA000F0E0E655FB4F958F8093C30401C0808130
:100BB000FF91EF919F918F912F910F900FBE0F900A
:100BC0001F9018951F920F920FB60F9211242F931A
:100BD0003F934F935F936F937F938F939F93AF93C5
:100BE000BF93EF93FF938091C3020E946B0120910A
:100BF000C7023091C8022F5F3F4F3093C802209345
:100C0000C7029091C602953618F096E09093C20202
:100C10009091C2029430C9F128F4923069F0933077
:100C2000D1F05EC0953009F451C0963009F058C03B
:100C300091E09093930351C0811152C02091C7025B
:100C40003091C8022436310508F442C01092930353
:100C50001092C6021CC0813009F042C0E091C60269
:100C600091E09E0F9093C602F0E02091C702309170
:100C7000C802EE0FFF1FEE53FD4F308727831092FF
:100C8000C8021092C70294E029C0811117C0E091F8
:100C9000C60291E09E0F9093C602F0E02091C70239
:100CA0003091C802EE0FFF1FEE53FD4F30872783B0
:100CB0001092C8021092C70293E010C02091C702A0
:100CC0003091C8022536310558F007C0811108C09F
:100CD0001092C8021092C70203C095E09093C2021E
:100CE0009091C5029923B9F081110AC08091C40284
:100CF000882321F08091C40261E009C02D9A0BC0C5
:100D00008091C402882331F08091C40260E00E9487
:100D1000940101C02D98FF91EF91BF91AF919F91E8
:100D20008F917F916F915F914F913F912F910F9094
:100D30000FBE0F901F90189585ED8093BC00809199
:100D4000BC0084FDFCCF1092BE0508954091610463
:100D5000262F30E0240F311D21323105DCF42091A3
:100D6000BE052430C9F4FC0180E090E0861758F4F9
:100D7000309161042191DC01AF5BBB4FA30FB11D2A
:100D80002C930196F3CF80916104680F6093610406
:100D900080E0089581E0089582E00895089508951F
:100DA000E091C2058091C105E81730F4F0E0E65605
:100DB000FC4F808190E008958FEF9FEF0895909110
:100DC000C2058091C105981750F4E92FF0E0E6566E
:100DD000FC4F208130E09F5F9093C20502C02FEF4F
:100DE0003FEFC90108958091C10590E02091C205AF
:100DF000821B91090895CF92DF92EF92FF920F9399
:100E00001F93CF93DF937C01CB018A012091DF03F5
:100E1000222389F0EB016B01C40ED51ECC15DD0534
:100E200069F06991D701ED91FC910190F081E02D7D
:100E3000C7010995F3CF642F0E94A606C801DF9170
:100E4000CF911F910F91FF90EF90DF90CF90089579
:100E5000CF93DF931F92CDB7DEB769832091DF0375
:100E60002223D1F02091BF05203240F021E030E074
:100E7000FC013383228380E090E015C08091C0059F
:100E8000E82FF0E0EF5DFB4F998190838F5F8093B7
:100E9000C0058093BF0505C061E0CE0101960E94A8
:100EA000A60681E090E00F90DF91CF91089580E059
:100EB00090E00895DC01ED91FC910284F385E02D32
:100EC0000995862F0895DC01ED91FC910084F18550
:100ED000E02D0995862F08950C9444321F920F92AD
:100EE0000FB60F9211242F933F934F935F936F93FD
:100EF0007F938F939F93AF93BF93EF93FF93E09173
:100F0000A604F091A704309709F451C0968DA685E8
:100F1000B785858591FF04C09C91892329F447C03A
:100F20009C91892309F043C0A389B4899C91858948
:100F3000809589238C93868997890197F1F7608D35
:100F4000718DA685B785558538E020E0CB010197E6
:100F5000F1F7822F90E095958795282F4C914523A6
:100F600009F02068315091F7868D81FD20958091A0
:100F7000A50490E001968F7399273091A404381747
:100F800049F0A091A504B0E0A052BC4F2C938093EF
:100F9000A50403C0868D8160868F828D938D019715
:100FA000F1F7A389B4899C918589892B8C93FF9152
:100FB000EF91BF91AF919F918F917F916F915F91D1
:100FC0004F913F912F910F900FBE0F901F9018954A
:100FD0001F920F920FB60F9211242F933F934F93AE
:100FE0005F936F937F938F939F93AF93BF93EF9391
:100FF000FF938091B900887F803609F49CC068F522
:10100000883209F45BC090F4803109F454C038F49C
:10101000882309F4F6C0883009F44DC0F6C0883141
:1010200009F44CC0803209F45DC0EFC0803409F48B
:1010300068C048F4803309F455C0883309F0E5C02E
:101040008093DD03D8C0803509F44FC0883509F49A
:101050005DC0883409F0D9C0D6C0883909F4C7C04A
:10106000A8F4883709F467C038F4883609F463C0F7
:10107000803709F460C0C9C0883809F4B8C0803925
:1010800009F45FC0803809F0C0C05BC0803B09F440
:1010900086C038F4803A09F466C0883A09F47FC003
:1010A000B4C0803C09F4A7C0883C09F4A4C0883BC4
:1010B00009F48AC0AAC08091DA0310C09091DC03C1
:1010C0008091DB03981770F5E091DC0381E08E0FCF
:1010D0008093DC03F0E0E654FC4F80818093BB00FA
:1010E00085EC86C08093DD038EC0E091DC0381E057
:1010F0008E0F8093DC038091BB00F0E0E654FC4F40
:1011000080839091DC038091DB036EC0E091DC036F
:1011100081E08E0F8093DC038091BB00F0E0E65409
:10112000FC4F80838091BD0581116DC081E080936B
:10113000BC0584EA61C083E08093BE0510928304FD
:10114000CFCF80918304803208F051C0E0918304B6
:1011500081E08E0F809383048091BB00F0E0ED5915
:10116000FB4F8083BDCF85EC8093BC001092BE0501
:1011700080918304803230F4E0918304F0E0ED59F3
:10118000FB4F10826091830470E0E091B805F0910C
:10119000B90583E694E009951092830436C084E093
:1011A0008093BE051092620410926104E091BA052A
:1011B000F091BB05099580916104811105C081E022
:1011C0008093610410924104E091620481E08E0FEB
:1011D00080936204F0E0EF5BFB4F80818093BB0063
:1011E0009091620480916104981708F479CF85E8A2
:1011F0008093BC000AC085EC8093BC001092BE05B1
:1012000004C01092DD030E949C06FF91EF91BF91F4
:10121000AF919F918F917F916F915F914F913F918E
:101220002F910F900FBE0F901F9018953091BF0512
:10123000313208F04AC08091BE058111FCCF9091F7
:10124000DE0322E02093BE056093BD052FEF2093BF
:10125000DD031092DC033093DB03E1E2F4E0AAEB60
:10126000B3E020E0321721F041914D932F5FFACF88
:101270001092DA032091DA03990F922B9093DA03FC
:101280009091BC05913061F41092BC059091DA0305
:101290009093BB009091BC0093FDF8CF95EC01C0FA
:1012A00095EE9093BC009091BE059230E1F3909141
:1012B000DD039F3F79F08091DD03803241F0809122
:1012C000DD03803331F084E005C081E003C082E0BB
:1012D00001C083E01092C0051092BF051092DF0399
:1012E00008950F931F93CF93DF93EC018A018A81B6
:1012F00091E09093DF038093DE031092C00510927B
:10130000BF058E819F81DC01ED91FC910190F08100
:10131000E02D0995811105C063E070E080E090E068
:101320001DC061E08E819F810E94160961E08A8163
:101330000E94E1001092C2058093C105813061F7DF
:101340008E819F81DC01ED91FC910284F385E02D7B
:101350000995F801808360E070E0CB01DF91CF91C7
:101360001F910F9108951F93CF93DF93EC01142FDA
:101370008A8191E09093DF038093DE031092C00591
:101380001092BF058E819F81DC01ED91FC9101904F
:10139000F081E02D0995811105C063E070E080E0E7
:1013A00090E014C08E819F81DC01ED91FC91019051
:1013B000F081E02D612F0995882379F361E08E811A
:1013C0009F810E94160960E070E0CB01DF91CF9110
:1013D0001F91089508950F931F93CF93DF93EC010E
:1013E0008EE691E0998388838D819E81009739F004
:1013F000DC01ED91FC910280F381E02D09958E01D5
:10140000005F1F4F89859A85892B31F087E090E036
:101410000E94AC319A8789872296C017D10791F72D
:10142000DF91CF911F910F910895CF93DF93EC013E
:101430000E94EB09CE01DF91CF910C944432FC0164
:1014400090819C3088F5818128E830E0281B3109A3
:1014500087FD3395220F331F220F331F6217730747
:1014600084F0828148E552E0481B510987FD53957D
:10147000440F551F440F551F9B01461757070CF487
:101480009A0122503109220F331F4FB7F894892F48
:1014900090E0FC01EE0FFF1F8E0F9F1FFC01ED5A25
:1014A000FA4F328321834FBF0895DF92EF92FF926C
:1014B0000F931F93CF93DF93EC01D62E7A0189010E
:1014C00088818C3008F068C061E08D2D0E94C301D6
:1014D0008881E82FF0E09F01220F331FE20FF31FF6
:1014E000ED5AFA4F9D2D9F732081207CD22ED92A50
:1014F000D08220E232E02E193F0937FF02C02D5F73
:101500003F4F3595279535952795298320E639E076
:10151000201B310B37FF02C02D5F3F4F35952795BC
:10152000359527952A836CE00E9434319CE0899F91
:10153000B001112440E050E09B01240F351FF90158
:10154000EE0FFF1F2E0F3F1FF901ED5AFA4F90814A
:1015500096FD16C04F5F5F4F4C30510569F7811102
:101560000FC01092800082E080938100109285006D
:1015700010928400B19A80916F00826080936F0016
:10158000E881F0E0CF01880F991FE80FF91FED5AAD
:10159000FA4F8081806480838881DF91CF911F9191
:1015A0000F91FF90EF90DF9008951F920F920FB66A
:1015B0000F9211242F933F934F935F936F937F93D9
:1015C0008F939F93AF93BF93EF93FF9380912004EA
:1015D00087FF05C010928500109284001BC02091E7
:1015E0002004022E000C330B8091770590E0281721
:1015F000390784F480912004082E000C990BFC011B
:10160000EE0FFF1F8E0F9F1FFC01ED5AFA4F8081D6
:1016100086FD15C0809120048F5F80932004209167
:101620002004022E000C330B8091770590E02817E0
:101630003907C4F4809120048C3064F113C0809188
:101640002004082E000C990BFC01EE0FFF1F8E0FDB
:101650009F1FFC01ED5AFA4F808160E08F730E945A
:101660009401D8CF809184009091850004968034B5
:101670009C4918F480E49CE905C080918400909115
:101680008500049690938900809388008FEF809363
:1016900020043BC02091840030918500809120047B
:1016A000082E000C990BFC01EE0FFF1F8E0F9F1FE1
:1016B000FC01ED5AFA4F81819281820F931F909322
:1016C00089008093880080912004082E000C990BDB
:1016D000FC01EE0FFF1F8E0F9F1FFC01ED5AFA4F0A
:1016E000808186FF12C080912004082E000C990B87
:1016F000FC01EE0FFF1F8E0F9F1FFC01ED5AFA4FEA
:10170000808161E08F730E949401FF91EF91BF91FE
:10171000AF919F918F917F916F915F914F913F9189
:101720002F910F900FBE0F901F90189561157105A6
:1017300079F0FB0101900020E9F73197AF01461BDA
:10174000570BDC01ED91FC910280F381E02D0994AF
:1017500080E090E008950F931F93CF93DF93CDB770
:10176000DEB72A970FB6F894DEBF0FBECDBFFC01DF
:10177000048115810115110511F4198214C0093075
:10178000110510F009E010E0FC0160817181A801F1
:10179000CE0101960E94BC33E1E0F0E0EC0FFD1FAA
:1017A000E00FF11F1082CE0101960E942B2E2A9687
:1017B0000FB6F894DEBF0FBECDBFDF91CF911F9162
:1017C0000F910895CF93DF93BC018AEA94E00E94C1
:1017D000960BEC016CEA71E08AEA94E00E94960BA9
:1017E0008C0F9D1FDF91CF9108958F929F92AF92A2
:1017F000BF920F931F93CF93DF93CDB7DEB7A1971F
:101800000FB6F894DEBF0FBECDBF19A2423008F468
:101810004AE08E010F5D1F4F842E912CA12CB12C1C
:10182000A50194010E94DE2FE62FB901CA010150E3
:101830001109EA3014F4E05D01C0E95CD801EC93D1
:10184000232B242B252B61F7B8018AEA94E00E9410
:10185000960BA1960FB6F894DEBF0FBECDBFDF91F9
:10186000CF911F910F91BF90AF909F908F9008954F
:10187000CF92DF92EF92FF92CF93DF936B017C01C7
:101880006DE28AEA94E00E945E03EC016627772706
:10189000CB016C197D098E099F094AE00E94F50B66
:1018A0008C0F9D1FDF91CF91FF90EF90DF90CF9035
:1018B0000895CF93DF93BC01990F880B990B97FF85
:1018C00003C00E94380C03C04AE00E94F50BEC01F3
:1018D0006CEA71E08AEA94E00E94960B8C0F9D1FDF
:1018E000DF91CF910895AF92BF92CF92DF92EF92A6
:1018F000FF920F931F93CF93DF937C015B01EA016B
:1019000069012417350720F48D2FE901C42ED82E44
:1019100062EF71E0C7010E944505D50114960D9153
:101920001C911597C017D107C8F5C016D10608F449
:101930008601D501ED91FC911197E00FF11FD08048
:1019400010826D917C916C0F7D1F6115710561F0A6
:10195000FB0101900020E9F73197AF01461B570BBF
:10196000C7010E94FB0413C0F70180819181009799
:1019700011F00E944432D70111961C921E921596C6
:101980001C921E92149713961C921E921297F501A8
:1019900080819181FC01E00FF11FD082C701DF91AE
:1019A000CF911F910F91FF90EF90DF90CF90BF905C
:1019B000AF900895AF92BF92CF92DF92EF92FF92D5
:1019C0000F931F93CF93DF93CDB7DEB72C970FB64E
:1019D000F894DEBF0FBECDBF8C015B01BA01CE0112
:1019E00007960E942B057801C12CD12CCA14DB0468
:1019F0000CF046C08B859C85892B71F00F81188572
:101A000065E270E0C8010E94A133009729F09C01B3
:101A1000201B310B890102C00FEF1FEF980140E03E
:101A200050E0BE01695F7F4FCE0101960E94730CAA
:101A3000BE016F5F7F4FC7010E949A04CE010196DD
:101A40000E9426052B853C85A8014F5F5F4FBE0194
:101A5000695F7F4FCE0101960E94730CBE016F5FDC
:101A60007F4FCE0107960E949A04CE0101960E94F4
:101A700026053FEFC31AD30A86E0E80EF11CB6CF65
:101A8000CE0107960E9426052C960FB6F894DEBF6D
:101A90000FBECDBFDF91CF911F910F91FF90EF90BF
:101AA000DF90CF90BF90AF9008953FB7F8948091AA
:101AB000C8059091C905A091CA05B091CB0526B57E
:101AC000A89B05C02F3F19F00196A11DB11D3FBF76
:101AD000BA2FA92F982F8827820F911DA11DB11D04
:101AE000BC01CD0142E0660F771F881F991F4A9500
:101AF000D1F708958E3008F08E50877080648093FF
:101B00007C0080917A00806480937A0080917A00D2
:101B100086FDFCCF809178002091790090E0922B97
:101B200008958F929F92AF92BF92CF92DF92EF92E1
:101B3000FF926B017C010E94550D4B015C01C114A9
:101B4000D104E104F104F1F00E94550DDC01CB0158
:101B500088199909AA09BB09883E9340A105B105D6
:101B600070F321E0C21AD108E108F10888EE880E6E
:101B700083E0981EA11CB11CC114D104E104F1043E
:101B800019F7DDCFFF90EF90DF90CF90BF90AF902F
:101B90009F908F9008952FB7F8946091C40570912D
:101BA000C5058091C6059091C7052FBF08951F9266
:101BB0000F920FB60F9211242F933F938F939F9301
:101BC000AF93BF938091C4059091C505A091C605C0
:101BD000B091C7053091C30523E0230F2D3720F4C2
:101BE0000196A11DB11D05C026E8230F0296A11D77
:101BF000B11D2093C3058093C4059093C505A093A0
:101C0000C605B093C7058091C8059091C905A091FC
:101C1000CA05B091CB050196A11DB11D8093C805E1
:101C20009093C905A093CA05B093CB05BF91AF911E
:101C30009F918F913F912F910F900FBE0F901F900A
:101C40001895CF92DF92EF92FF920F931F93E82F98
:101C5000F92F05C0015011092109310961F1908165
:101C600096239417B9F305C00150110921093109D0
:101C700011F1908196239413F7CFC12CD12CE12C34
:101C8000F12C0AC08FEFC81AD80AE80AF80A0C1516
:101C90001D052E053F0579F080818623841791F379
:101CA0006C2D7D2D8E2D9F2D1F910F91FF90EF900C
:101CB000DF90CF90089560E070E080E090E01F91A9
:101CC0000F91FF90EF90DF90CF900895CF93DF9327
:101CD000CDB7DEB7C459D1090FB6F894DEBF0FBE39
:101CE000CDBF789484B5826084BD84B5816084BDA5
:101CF00085B5826085BD85B5816085BD80916E00AA
:101D0000816080936E0010928100809181008260DA
:101D10008093810080918100816080938100809117
:101D200080008160809380008091B1008460809306
:101D3000B1008091B00081608093B00080917A0002
:101D4000846080937A0080917A00826080937A0028
:101D500080917A00816080937A0080917A00806817
:101D600080937A001092C100E091BA04F091BB0414
:101D700082E08083E091B604F091B7041082E09194
:101D8000B804F091B9048FEC80831092C204E09102
:101D9000BE04F091BF0486E08083E091BC04F09122
:101DA000BD04808180618083E091BC04F091BD041A
:101DB000808188608083E091BC04F091BD048081C3
:101DC00080688083E091BC04F091BD0480818F7DA8
:101DD00080837E0121E4E20EF11C670136E0C30E30
:101DE000D11C85E690E08C0F9D1F0696CD56DF4FE7
:101DF00099838883C359D040F3E52F2E312C2C0EC4
:101E00003D1E96E0290E311C8E010F5F1F4FB02E34
:101E1000A12E8AEA94E00E945A0597FF10C06B2D0C
:101E20007A2DCE018D579F4F0E944505C957DF4F30
:101E300088819981C758D040892B59F41EC08132BE
:101E4000910569F3D8018D938D01EA16FB0609F718
:101E5000E6CFCD57DF4F88809980C358D04065E2E8
:101E600070E0C4010E94A133009711F40C94791B17
:101E70008C01081919090C947B1B0FEF1FEFAA2482
:101E8000AA94BA2C980141E050E0BE016D577F4FF3
:101E9000CE0183589F4F0E94730CA8014F5F5F4F84
:101EA0009501BE016D577F4FCE0189589F4F0E940B
:101EB000730C62E771E0CE0183589F4F0E947B0450
:101EC000882351F0BE0169587F4FC7010E942B053E
:101ED000B70181E090E012C065E771E0CE01835860
:101EE0009F4F0E947B04882369F0BE0169587F4F91
:101EF000C7010E942B05B70180E090E00E945E02BE
:101F00000C94631B68E771E0CE0183589F4F0E94D9
:101F10007B04882309F44EC0BE0169587F4FCE016F
:101F20008F589F4F0E942B0562EF71E0C7010E94FE
:101F3000450562EF71E0C6010E944505BE016F587C
:101F40007F4FCE018B599F4F0E942B05AE014B59FD
:101F50005F4F62E070E0C7010E94DA0CCE018B593E
:101F60009F4F0E942605B701CE018B599F4F0E94BB
:101F70002B05CE018B599F4F0E94AB0BB82ECE0183
:101F80008B599F4F0E942605B601CE018B599F4F5A
:101F90000E942B05CE018B599F4F0E94AB0B8C01E9
:101FA000CE018B599F4F0E942605B8018B2D0E94B0
:101FB000FF0151C06BE771E0CE0183589F4F0E9433
:101FC0007B04882309F460C0BE0169587F4FCE01AD
:101FD0008F589F4F0E942B0562EF71E0C7010E944E
:101FE000450562EF71E0C6010E944505BE016F58CC
:101FF0007F4FCE018B599F4F0E942B05AE014B594D
:102000005F4F62E070E0C7010E94DA0CCE018B598D
:102010009F4F0E942605B701CE018B599F4F0E940A
:102020002B05CE018B599F4F0E94AB0B182FCE0171
:102030008B599F4F0E942605143111F48EE007C082
:10204000153111F48FE003C0163181F480E10E9454
:102050007A0D0E94590CC6010E942605C7010E94F4
:102060002605CE018F589F4F0C94641B173111F435
:1020700081E1EDCF183111F482E1E9CF193111F48A
:1020800083E1E5CF812FE3CF6EE771E0CE01835886
:102090009F4F0E947B04882309F44AC0BE016958FF
:1020A0007F4FCE018F589F4F0E942B0562EF71E04A
:1020B000C7010E94450562EF71E0C6010E94450517
:1020C000BE016F587F4FCE018B599F4F0E942B0549
:1020D000AE014B595F4F62E070E0C7010E94DA0C1D
:1020E000CE018B599F4F0E942605B701CE018B5917
:1020F0009F4F0E942B05CE018B599F4F0E94AB0B27
:102100008C01CE018B599F4F0E9426051016110697
:1021100024F060E0802F819508C0C801449706979D
:1021200010F417B88DC561E0802F0E94C30188C5E7
:1021300061E871E0CE0183589F4F0E947B048823A1
:1021400009F44AC0BE0169587F4FCE018B599F4F99
:102150000E942B05BE016B597F4FC7010E942B05C2
:10216000C7010E94AB0B182FC7010E94260561E032
:10217000111119C080E00E94C30161E080E00E945B
:10218000940183E090E00197F1F760E080E00E9425
:1021900094018FE090E00197F1F761E080E00E9408
:1021A000940160E03AC0812F0E94C30160E0812F5A
:1021B0000E94940183E090E00197F1F761E0812FA4
:1021C0000E9494018FE090E00197F1F760E0812F89
:1021D0000E94940160E02BC064E871E0CE01835856
:1021E0009F4F0E947B048823A1F1BE0169587F4F55
:1021F000CE018B599F4F0E942B05BE016B597F4F1B
:10220000C7010E942B05C7010E94AB0B182FC70105
:102210000E94260560E011110AC080E00E94C301FF
:1022200020E432E44FE050E060E080E009C0812F1C
:102230000E94C30120E432E44FE050E061E0812FCE
:102240000E9439010E942301CE018B599F4F0C94AB
:10225000641B67E871E0CE0183589F4F0E947B04A6
:10226000882309F49CC0BE0169587F4FCE018F5866
:102270009F4F0E942B0562EF71E0C7010E94450548
:1022800062EF71E0C6010E944505BE016F587F4FA5
:10229000CE018B599F4F0E942B05AE014B595F4FCA
:1022A00062E070E0C7010E94DA0CCE018B599F4FAB
:1022B0000E942605B701CE018B599F4F0E942B0526
:1022C000CE018B599F4F0E94AB0B5C01CE018B5905
:1022D0009F4F0E942605B601CE018B599F4F0E9449
:1022E0002B05CE018B599F4F0E94AB0B8C01CE0169
:1022F0008B599F4F0E942605F501EE0FFF1FCF015E
:102300008A0D9B1D9C012F563A4F4901003232E045
:1023100013070CF041C017FD06C0053B11052CF05A
:1023200004EB10E002C000E010E0EA0DFB1DEF56E8
:10233000FA4F818128E830E02901481A510887FDC9
:102340005394440C551C440C551C052C000C660879
:102350007708828128E532E0281B310987FD339513
:10236000220F331F220F331FC901330FAA0BBB0BE0
:102370009C01AD012419350946095709D8010E946D
:102380009F2F24EB30E040E050E00E94752F420E7A
:10239000531E641E751E8201B801C4015BC06BE848
:1023A00071E0CE0183589F4F0E947B04882309F47B
:1023B00054C0BE0169587F4FCE018F589F4F0E9475
:1023C0002B0562EF71E0C7010E94450562EF71E0E5
:1023D000C6010E944505BE016F587F4FCE018B5943
:1023E0009F4F0E942B05AE014B595F4F62E070E09A
:1023F000C7010E94DA0CCE018B599F4F0E9426051F
:10240000B701CE018B599F4F0E942B05CE018B59EE
:102410009F4F0E94AB0B8C01CE018B599F4F0E94A6
:102420002605B601CE018B599F4F0E942B05CE0188
:102430008B599F4F0E94AB0B5C01CE018B599F4F74
:102440000E942605C801880F991F800F911FB501B2
:102450008F569A4F0E941F0AFECD60E971E0CE01AF
:1024600083589F4F0E947B04882309F49DC0BE01BE
:1024700069587F4FCE018B599F4F0E942B0562EF09
:1024800071E0CE018D5A9F4F0E94450562EF71E0C9
:10249000C1010E94450562EF71E003E510E00C0FF9
:1024A0001D1F045F1F4FC8010E944505BE016B59E7
:1024B0007F4FC7010E942B05A70163E070E0CE01AA
:1024C0008D5A9F4F0E94DA0CC7010E942605BE015B
:1024D0006D5A7F4FC7010E942B05C7010E94AB0BAD
:1024E0005C01C7010E942605B101C7010E942B05AE
:1024F000C7010E94AB0B2C01C7010E942605B80141
:10250000C7010E942B05C7010E94AB0B3C01C7010C
:102510000E942605A8EAB2E088EB92E0FD01219135
:102520003191A216B306E1F4E0918E05F0E0CF01FF
:10253000880F991FE80FF91FED5AFA4F80818F7BA2
:1025400080839301A201B5018EE895E00E94550AAF
:10255000B092A702A092A6028FEF9FEF0C949C1B53
:102560008E179F07E1F600E010E08D919D91892B79
:1025700011F40C94891B0F5F1F4F08301105A9F748
:1025800083E590E08C0F9D1F0C960E94260583E545
:1025900090E08C0F9D1F06960E942605CE018D5A55
:1025A0009F4F0E94260550CE66E971E0CE01835808
:1025B0009F4F0E947B04882309F4DAC0BE0169584A
:1025C0007F4FCE018F589F4F0E942B0562EF71E025
:1025D000C7010E94450562EF71E0C6010E944505F2
:1025E00062EF71E08701045F1F4FC8010E9445053B
:1025F000BE016F587F4FCE018B599F4F0E942B0514
:10260000AE014B595F4F63E070E0C7010E94DA0CE6
:10261000CE018B599F4F0E942605B701CE018B59E1
:102620009F4F0E942B05CE018B599F4F0E94AB0BF1
:10263000C457DF4F8883CC58D040CE018B599F4F71
:102640000E942605B601CE018B599F4F0E942B0593
:10265000CE018B599F4F0E94AB0B5C01CE018B5971
:102660009F4F0E942605B801CE018B599F4F0E94B3
:102670002B05CE018B599F4F0E94AB0B8C01CE01D5
:102680008B599F4F0E9426059501BB0C440B550B9F
:1026900060E472E48FE090E00E94752F49015A01D6
:1026A000A90128EE33E0D8010E945A312B013C01E8
:1026B000840157FF02C00F5F1F4F15950795C80192
:1026C000880F991F880F991FDC011597C357DF4F9B
:1026D000B983A883CD58D040812C912C5401CA01D4
:1026E000550FAA0BBB0BC157DF4F88839983AA8371
:1026F000BB83CF58D04084149504A604B7042CF0B3
:10270000C7010C960E942605A6CC61E0C457DF4F96
:102710008881CC58D0400E9494010230110540F0CD
:10272000C357DF4F88819981CD58D0400197F1F789
:1027300060E0C457DF4F8881CC58D0400E9494019C
:102740000230110540F0C357DF4F88819981CD5881
:10275000D0400197F1F7C157DF4F88819981AA8155
:10276000BB81CF58D040880E991EAA1EBB1EC3CF76
:1027700064E971E0CE0183589F4F0E947B04882357
:10278000E9F1BE0169587F4FCE018F589F4F0E94DB
:102790002B0562EF71E0C7010E94450562EF71E011
:1027A000C6010E944505BE016F587F4FCE018B596F
:1027B0009F4F0E942B05AE014B595F4F62E070E0C6
:1027C000C7010E94DA0CCE018B599F4F0E9426054B
:1027D000B701CE018B599F4F0E942B05CE018B591B
:1027E0009F4F0E94AB0B182FCE018B599F4F0E9419
:1027F000260560E0812F0E9494012DCC6BE971E0E9
:10280000CE0183589F4F0E947B04882309F454C053
:10281000BE0169587F4FCE018F589F4F0E942B05F4
:1028200062EF71E0C7010E94450562EF71E0C601E9
:102830000E944505BE016F587F4FCE018B599F4FB7
:102840000E942B05AE014B595F4F62E070E0C7015B
:102850000E94DA0CCE018B599F4F0E942605B701CA
:10286000CE018B599F4F0E942B05CE018B599F4F54
:102870000E94AB0B182FCE018B599F4F0E9426054B
:102880001093C3021092C502F89482E08093B000C6
:102890008093B10094E69093B3001092B2008093BD
:1028A000700078948093C2021092C6028091C30295
:1028B00060E00E94C301C7C265EA71E0CE0183589F
:1028C0009F4F0E947B04882309F4FDC0BE01695814
:1028D0007F4FCE018F589F4F0E942B0562EF71E012
:1028E000C7010E94450562EF71E0C6010E944505DF
:1028F000BE016F587F4FCE018B599F4F0E942B0511
:10290000AE014B595F4F62E070E0C7010E94DA0CE4
:10291000CE018B599F4F0E942605B701CE018B59DE
:102920009F4F0E942B05CE018B599F4F0E94AB0BEE
:10293000182FCE018B599F4F0E9426051093C3027A
:102940001092C50289EC92E090938F0480938E04DC
:102950008091C60290E090939104809390048091BE
:10296000930390E090939304809392048091C20229
:10297000853009F083C08091CB029091CC028858B9
:1029800091098D35910588F48091C602843041F417
:102990008091CD029091CE028097479708F4E9C6C6
:1029A0008091C602843408F0CBC68091C6028A3179
:1029B00008F444C78091C9029091CA02843F9140B3
:1029C00080F410928D0410928C048FEF9FEFDC0145
:1029D0008093880490938904A0938A04B0938B0415
:1029E0004AC08091CB029091CC0285974B9708F01A
:1029F00025C7EFECF2E082E090E0812C912C5401AD
:102A0000AC014F5F5F4F2091C60230E04217530781
:102A10005CF4DF0112972D913C912750310927304A
:102A2000310508F4EFC6CA010197959587959093F3
:102A30008D0480938C040C972CF410928D041092CA
:102A40008C04FCC68092880490928904A0928A0427
:102A5000B0928B0484E090E090938504809384048A
:102A600081E090E00DC08092880490928904A09249
:102A70008A04B0928B048BE090E0EECF80E090E08F
:102A8000892BD1F0609188047091890480918A0427
:102A900090918B0440E10E94F50B6CEA71E08AEAA8
:102AA00094E00E94960B1093C3021092C50282E03C
:102AB0008093C2021092C60264E670E080E090E06B
:102AC0000E94910DC8CA6FEA71E0CE0183589F4FF2
:102AD0000E947B04882309F4C5C0BE0169587F4F5A
:102AE000CE018F589F4F0E942B0562EF71E0C70106
:102AF0000E94450562EF71E0C6010E944505BE01D6
:102B00006F587F4FCE018B599F4F0E942B05AE010E
:102B10004B595F4F62E070E0C7010E94DA0CCE01B2
:102B20008B599F4F0E942605B701CE018B599F4FAD
:102B30000E942B05CE018B599F4F0E94AB0B8C013D
:102B4000CE018B599F4F0E9426050E94842C8091B4
:102B50007D0590917E05009759F0DC01ED91FC9187
:102B60000280F381E02D099510927E0510927D057B
:102B700081E090E090937C0580937B0580917D05BA
:102B800090917E05892BD1F488E090E00E94AC31D1
:102B9000FC0180917A0590E0A0E0B0E0828393830D
:102BA000A483B58388E291E09183808387E495E0F4
:102BB00097838683F0937E05E0937D05A6961FAEEE
:102BC000A69774E0A72EB12C80917D0590917E058B
:102BD000DC01ED91FC910480F581E02DAE014B59B3
:102BE0005F4F61E00995811105C0A6968FADA6974C
:102BF0008330A9F0F1E0AF1AB10831F780917D057B
:102C000090917E05009739F0DC01ED91FC910280F6
:102C1000F381E02D099510927E0510927D05F80153
:102C20003197E730F10508F016CAEC5CFF4F0C94C1
:102C3000543181E090E002C082E090E00E94A52B38
:102C400081E090E006CA84E090E0F8CF80E190E077
:102C5000F5CF80E290E0F2CF80E490E0EFCF80E823
:102C600090E0ECCF67EB71E0CE0183589F4F0E945C
:102C70007B04882309F470C0BE0169587F4FCE01E0
:102C80008F589F4F0E942B0562EF71E0C7010E9491
:102C9000450562EF71E0C6010E944505BE016F580F
:102CA0007F4FCE018B599F4F0E942B05AE014B5990
:102CB0005F4F62E070E0C7010E94DA0CCE018B59D1
:102CC0009F4F0E942605B701CE018B599F4F0E944E
:102CD0002B05CE018B599F4F0E94AB0B8C01CE016F
:102CE0008B599F4F0E942605F8013197E830F10576
:102CF00008F0B1C9E55CFF4F0C94543181E00E94AB
:102D0000B62C9ECF82E00E94B62C82E090E0A1C952
:102D100083E00E94B62C83E090E09BC984E00E948F
:102D2000B62C84E090E095C985E00E94B62C85E041
:102D300090E08FC986E00E94B62C86E090E089C9B9
:102D400087E00E94B62C87E090E083C988E00E946B
:102D5000B62C88E090E07DC96FEB71E0CE0183581E
:102D60009F4F0E947B04882351F0BE0169587F4F1A
:102D7000C7010E942B05C7010E949F23A4C467ECD2
:102D800071E0CE0183589F4F0E947B04882309F491
:102D90005FC0BE0169587F4FCE018F589F4F0E9480
:102DA0002B0562EF71E0C7010E94450562EF71E0FB
:102DB000C6010E944505BE016F587F4FCE018B5959
:102DC0009F4F0E942B05AE014B595F4F62E070E0B0
:102DD000C7010E94DA0CCE018B599F4F0E94260535
:102DE000B701CE018B599F4F0E942B05CE018B5905
:102DF0009F4F0E94AB0B8093B802CE018B599F4F1F
:102E00000E942605B601CE018B599F4F0E942B05CB
:102E1000CE018B599F4F0E94AB0B8093B902CE011C
:102E20008B599F4F0E9426058091B9029091B8025C
:102E3000A6969FAFA697A7968FAFA797CE018B595F
:102E40009F4F0E94642883EA91E00E94E20B03C92D
:102E50006FEC71E0CE0183589F4F0E947B04882362
:102E600009F49FC1BE0169587F4FCE018F589F4F13
:102E70000E942B0562EF71E0CE018B599F4F0E949B
:102E8000450562EF71E0CD56DF4F88819981C359C6
:102E9000D0400E944505BE016F587F4FC7010E9478
:102EA0002B05A70162E070E0CE018B599F4F0E9475
:102EB000DA0CC7010E942605BE016B597F4FC7017E
:102EC0000E942B05C7010E94AB0BB82EC7010E94C0
:102ED0002605A090B9029090B802F7019082A182D5
:102EE00000EA14E0E4E9F4E011920E171F07E1F79D
:102EF00048E060E0C7010E949628C757DF4F9882DC
:102F0000C958D040C657DF4FA882CA58D04080E188
:102F1000D7011D928A95E9F7CE0187579F4F0E94EE
:102F20006428CE0187579F4F0E94472660E4CE0158
:102F300087579F4F0E94EA25CE0187579F4F0E94D7
:102F40001726E4E9F4E01192B4E0E03AFB07D9F780
:102F500048E060E0CE0187579F4F0E9496288B2D56
:102F600090E08C30910500F5FC01ED5BFF4F0C9477
:102F700054318EE790E0F7019583848321E830E0B7
:102F80009DC081E090E0D70115969C938E93149795
:102F90008FEF90E017969C938E93169781E490E0C4
:102FA00019969C938E9318975701912CCCC081E071
:102FB00090E0F7019383828381E790E09583848397
:102FC00089E890E09783868385E890E09187808701
:102FD00083E490E099C08CE790E0D70115969C932C
:102FE0008E93149782E990E017969C938E93169790
:102FF00019969C938E93189784E490E09FC084E088
:1030000090E0F701938382838FEF90E09583848330
:1030100084E490E09783868384E290E091878087C0
:1030200084E190E0938782878CE090E095878487A5
:10303000BBCF8EE890E0D70115969C938E931497A2
:1030400081E990E017969C938E93169719969C931E
:103050008E93189782EF90E071C086E890E0F701B8
:103060009583848389E490E09783868389E290E066
:10307000918780878EE190E047C080EC90E0D70197
:1030800013969C938E93129780EA90E015969C93EA
:103090008E9314978FE990E017969C938E931697D2
:1030A00080E890E019969C938E93189747C086E627
:1030B00090E0F7019583848329E930E03783268304
:1030C00021C08FE790E0D70115969C938E931497BB
:1030D00088E890E017969C938E93169719969C9388
:1030E0008E93189780E790E029C080E290E0F70186
:1030F0009383828320E430E0358324834FEF50E0D4
:103100005783468331872087938782874DCF84E01A
:1031100090E0D70113969C938E93129722E030E0B3
:1031200015963C932E9314974FEF50E017965C93AF
:103130004E93169719963C932E9318971B969C9333
:103140008E931A9731CFF501819191915F01282FCC
:10315000E4E9F4E021930E171F07E1F7892B39F01A
:1031600041E0692DCE0187579F4F0E949628939486
:10317000F8E09F12E8CF68EB7BE080E090E00E94EF
:10318000910D83EA91E00E94E20B85E690E08C0FBE
:103190009D1F06960E942605CE018B599F4F0C94C9
:1031A0002F1067ED71E0CE0183589F4F0E947B0482
:1031B0008111D0C16DED71E0CE0183589F4F0E9407
:1031C0007B04882309F474C050EC852E52E0952EC0
:1031D0006DEB662E62E0762E8091A8049091A90492
:1031E000DC01ED91FC910084F185E02D0995892B9E
:1031F00009F46CC24DEBA42E42E0B42E85018091FF
:10320000A8049091A904DC01ED91FC910084F18562
:10321000E02D0995181619069CF48091A804909148
:10322000A904DC01ED91FC910284F385E02D099560
:10323000F801808365E070E080E090E00E94910DED
:103240000F5F1F4F80169106D1F6D5016D915D017C
:1032500070E080E090E04AE00E94F50B8A149B0445
:10326000A1F76CEA71E08AEA94E00E94960B8091E3
:10327000BD029091BE029093BB029091BF029093C9
:10328000BC028F5E8093BA020AEB12E08091A80420
:103290009091A904F80161918F01DC01ED91FC91FD
:1032A0000190F081E02D09956016710679F794CFB1
:1032B00061EE71E0CE0183589F4F0E947B0488230A
:1032C000A1F10E94842C01E023E042E06BE68091B2
:1032D000A9050E947C2700E022E044E06BE1809198
:1032E000A9050E947C2722E044E06CE18091A905B9
:1032F0000E947C27B090A90508EE13E0970141E0F9
:103300006BE68B2D0E94B626F70180818F7B808330
:10331000C557DF4F8883CB58D040AE0145575F4F2C
:103320006BE68B2D0E944F23D1C167EE71E0CE0179
:1033300083589F4F0E947B04882359F00E9470237A
:103340008DEE91E00E944A23809198039091990319
:1033500027C063EF71E0CE0183589F4F0E947B042A
:10336000882359F00E9470238DEE91E00E944A2339
:10337000809196039091970313C069EF71E0CE019D
:1033800083589F4F0E947B04882391F00E947023F2
:103390008DEE91E00E944A238091940390919503D1
:1033A00062E870E00E944031CB010E94590C8EC14E
:1033B0006FEF71E0CE0183589F4F0E947B048823FA
:1033C000E1F1BE0169587F4FCE018B599F4F0E949A
:1033D0002B05BE016B597F4FC7010E942B05C7010A
:1033E0000E94AB0BB82EC7010E9426050091C002B7
:1033F0001091C102B8018B2D0E94FF018091000144
:1034000090910101B801680F791F7093C102609318
:10341000C002615071096E3F710538F09195819538
:10342000910990930101809300016EE170E080E0CA
:1034300090E00E94910D0C94241162E072E0CE01A4
:1034400083589F4F0E947B04882309F47AC0BE01F1
:1034500069587F4FCE018F589F4F0E942B0562EF16
:1034600071E0C7010E94450562EF71E0C6010E944C
:103470004505BE016F587F4FCE018B599F4F0E946B
:103480002B05AE014B595F4F62E070E0C7010E940F
:10349000DA0CCE018B599F4F0E942605B701CE0151
:1034A0008B599F4F0E942B05CE018B599F4F0E9435
:1034B000AB0B182FCE018B599F4F0E942605B601EA
:1034C000CE018B599F4F0E942B05CE018B599F4FE8
:1034D0000E94AB0B082FCE018B599F4F0E942605EF
:1034E00061E0812F0E94C30160E0812F0E9494015E
:1034F00083E090E00197F1F761E0812F0E94940151
:1035000083E290E00197F1F760E0812F0E9494013F
:1035100060E0802F0E94C30120E335E740E050E0E7
:1035200061E0802F0E9439010E94562E20E030E099
:1035300048E652E40E947C300E94EE30CB010C94AD
:10354000291065E072E0CE0183589F4F0E947B04F2
:10355000882351F0BE0169587F4FC7010E942B0597
:10356000C7010E944029AFC06CE072E0CE018358D1
:103570009F4F0E947B04882309F467C062EF71E0CB
:10358000CE018B599F4F0E9445058091A8049091D0
:10359000A904DC01ED91FC910084F185E02D0995F1
:1035A0001816190614F00C942411A090A804B090D9
:1035B000A90462EF71E0C7010E944505C5010E94A0
:1035C0005A0597FD24C0E2968FAFE297E3961FAEAF
:1035D000E397F701048115810F5F1F4FB801C70101
:1035E0000E94D404882351F3D7012D913C91119767
:1035F00014968D919C911597BE016F587F4F820F45
:10360000931F0E94B533F70115830483D7CFB70109
:10361000CE018B599F4F0E949A04C7010E94260534
:10362000CE018B599F4F0E947F2862E070E080E0BE
:1036300090E00E94910D40E050E062EF71E0CE0119
:103640008B599F4F0E94FB04A0CF62E172E0CE0134
:1036500083589F4F0E947B048823C1F1BE016958A3
:103660007F4FC7010E942B05D70114960D911C9125
:1036700015970115110521F4A6961FAEA69715C042
:103680000430110510F004E010E0F7016081718151
:10369000A801CE018B599F4F0E94BC33E5E6F0E0B4
:1036A000EC0FFD1FE00FF11F1082BE016B597F4F21
:1036B0008091A8049091A9040E94960BCE018B5989
:1036C0009F4F0E94E20BC7010E942605CE01895838
:1036D0009F4F0E942605CE0183589F4F0E942605CA
:1036E000CE018D579F4F0E9426050E94CD030C945A
:1036F000040F0FEF1FEF64E270E0C4010E94A133DA
:10370000009711F40C943F0F5C01A818B9080C94B1
:10371000420F4801880C991CC401800F911F93012E
:10372000A201B5018F569A4F0E94550AF401E8553F
:10373000FD4FB182A082C8010E94590C0C94C012A6
:103740008091CD029091CE02825491098E9708F01B
:103750002CC980E090E040E050E0BA01FC01E15368
:10376000FD4F208131812950310929303105C8F0C0
:103770001CC98091CF029091D0020997099708F057
:103780000FC910928D0410928C048FEF9FEFDC0113
:103790008093880490938904A0938A04B0938B0447
:1037A00021C0FC01EF52FD4F2081318127513109A9
:1037B00022313105D0F4440F551F661F771F416039
:1037C00004968038910551F680E290E090938D0444
:1037D00080938C04409388045093890460938A04F6
:1037E00070938B0483E090E037C9208131812650AB
:1037F00031092730310508F0D8C8440F551F661F1E
:10380000771FDECF20813181235131092F303105DF
:1038100070F0208131812A5031092930310570F44E
:10382000880C991CAA1CBB1C02963496E9C8880C0B
:10383000991CAA1CBB1C689480F8F6CF8091C60224
:103840008A3108F45AC08091C9029091CA0280322C
:10385000934008F4B6C88091CB029091CC02C697F1
:10386000869708F04AC08091CD029091CE02C6970B
:10387000869708F042C0E1EDF2E023E030E0812CD1
:10388000912C5401C90101964091C60250E0841761
:10389000950754F4DF0112974D915C914C505109FA
:1038A0004B30510588F001C0C90101979595879566
:1038B00090938D0480938C040C970CF0D4C81092D4
:1038C0008D0410928C0419C08081918185974B974B
:1038D00050F4880C991CAA1CBB1C689480F82E5FBD
:1038E0003F4F3496CFCF808191810C970A9728F46F
:1038F000880C991CAA1CBB1CF2CF8091C602823294
:1039000008F459C08091CB029091CC02069707979A
:1039100008F051C0EFECF2E022E030E0812C912C75
:103920005401C90101964091C60250E084179507E1
:10393000CCF4DF0112974D915C9111974E515109D2
:103940004731510548F5880C991CAA1CBB1C68948A
:1039500080F84081518134964350510945305105DA
:1039600038F101C0C90101979595879590938D0411
:1039700080938C0440972CF410928D0410928C0448
:103980001AC08092880490928904A0928A04B0920E
:103990008B048CE090E060C84D915C914C505109D3
:1039A0004B30510540F4880C991CAA1CBB1CD1CF8C
:1039B0002E5F3F4FB6CFCE018B599F4F0E94E11C27
:1039C0005FC82F923F924F925F926F927F928F9239
:1039D0009F92AF92BF92CF92DF92EF92FF920F939E
:1039E0001F93CF93DF9300D000D000D0CDB7DEB7C8
:1039F0001C821B8281E090E09A8389838091C602B9
:103A00008D3008F46BC049E753E0BE016D5F7F4F16
:103A1000CE0101960E94C828892B09F05FC049E7B2
:103A200053E0BE016D5F7F4FCE0101960E94C82812
:103A3000019709F053C049E753E0BE016D5F7F4F26
:103A4000CE0101960E94C828892B09F047C0C12CDD
:103A5000D12C760100E010E08091C60290E029812F
:103A60003A81281739075CF549E753E0BE016D5FDD
:103A70007F4FCE0101960E94C8285C0149E753E0C0
:103A8000BE016D5F7F4FCE0101960E94C82821E0E4
:103A9000A216B10449F4892B09F5CC0CDD1CEE1CEF
:103AA000FF1C6894C0F808C0AB28C1F40197B1F4BA
:103AB000CC0CDD1CEE1CFF1C0F5F1F4FCDCF1093F5
:103AC0008D0400938C04C0928804D0928904E09203
:103AD0008A04F0928B0481E090E05FC21C821B821A
:103AE00081E090E09A838983809190049091910481
:103AF000181619060CF058C0E0918E04F0918F044E
:103B000082E090E09A8389838281938189974E979E
:103B100008F04AC083E090E09A838983848195818C
:103B20000B970A9708F040C04CEB51E0BE016D5F67
:103B30007F4FCE0101960E94C828892BA9F54CEB36
:103B400051E0BE016D5F7F4FCE0101960E94C828F3
:103B5000019751F5C12CD12C760100E010E02091A5
:103B600090043091910489819A81821793070CF017
:103B700026C14CEB51E0BE016D5F7F4FCE01019637
:103B80000E94C8285C010330110509F0E2C04CEB2B
:103B900051E0BE016D5F7F4FCE0101960E94C828A3
:103BA000A816B90609F4D5C0E0918E04F0918F04EF
:103BB00082819381C6978697E0F4848195814B97A3
:103BC0004597B8F4DF0116967F0126ECE20EF11C52
:103BD00020E030E040E050E060E070E080E090E025
:103BE0000D911C911197095011090830110508F425
:103BF000F5C08091C602893370F182819381895723
:103C000091098335910508F425C125C0D901129683
:103C10006D917C911397665171096131710508F0BE
:103C200045C1D701C601880F991FAA1FBB1F6C0190
:103C30007D016894C0F84E5F5F4F2C5F3F4F4B3360
:103C4000510509F416C1D9016D917C916A50710931
:103C500069307105D8F28091C602823231F48281D6
:103C600093810A97099708F431C18281938189571A
:103C7000910983359105D0F48091C6028132B0F06C
:103C800084819581CA97899788F49F012A5F3F4F65
:103C9000C12CD12C760143E050E0D9016D917C918B
:103CA0006A5071096930710508F42FC182819381CE
:103CB0008C549109C59778F48091C602843031F410
:103CC000848195818097479708F487C18091C602C7
:103CD000843408F069C18091C602863460F1828123
:103CE00093810C970B9708F4C8C125C0D90112968F
:103CF0006D917C9113976E5171096731710508F0D0
:103D0000F4C1D701C601880F991FAA1FBB1F6C0100
:103D10007D016894C0F84E5F5F4F2C5F3F4F453484
:103D2000510509F4C5C1D9016D917C916C5071099F
:103D30006B307105D8F28091C602883508F43CC218
:103D400082819381855891098B35910508F4DDC1F5
:103D500033C24CEB51E0BE016D5F7F4FCE01019647
:103D60000E94C8284C010330110569F44CEB51E066
:103D7000BE016D5F7F4FCE0101960E94C828881654
:103D8000990609F011CFA114B10459F48A94892835
:103D900009F00ACFCC0CDD1CEE1CFF1C6894C0F8A7
:103DA0000BC0AA94AB2809F0FFCE892809F0FCCEFD
:103DB000CC0CDD1CEE1CFF1C0F5F1F4FD0CE1093F0
:103DC0008D0400938C04C0928804D0928904E09200
:103DD0008A04F0928B0482E090E0DFC012960D918D
:103DE0001C911397015111090D30110528F501E0BF
:103DF0000E94613121601496EA16FB0609F0F0CEAC
:103E0000209388043093890440938A0450938B0450
:103E100000E20E947C31209386043093870485E081
:103E200090E0909385048093840480E390E09093E5
:103E30008D0480938C04B5C012960D911C9113973C
:103E4000045011090530110508F0D3CE01E00E949D
:103E50006131D1CF84819581CA97899708F0FBCED3
:103E60009F012A5F3F4FC12CD12C760143E050E0E7
:103E7000EACE9F012A583F4FD9012D913C912A50FB
:103E800031092930310508F0E6CE2CE130E03093DD
:103E90008D0420938C04C0928804D0928904E0920F
:103EA0008A04F0928B048AE090E077C0D9011296E0
:103EB0006D917C911397665071096730710508F018
:103EC000CACECC0CDD1CEE1CFF1CB5CE2091C60268
:103ED000CF01820F911D820F911DDC0112978D91F0
:103EE0009C910A97099708F0C0CE10928D04109209
:103EF0008C048FEF9FEFDC018093880490938904FA
:103F0000A0938A04B0938B0446C0D90112966D9198
:103F10007C911397665171096131710588F1129690
:103F20006D917C911397665071096730710508F0A7
:103F3000BDCECC0CDD1CEE1CFF1C4E5F5F4F2C5F1A
:103F40003F4F4332510509F0A8CE9F012A5B3F4FF6
:103F5000D9012D913C912A5031092930310508F0C1
:103F6000A5CE20E130E030938D0420938C04C092E4
:103F70008804D0928904E0928A04F0928B040BC0EA
:103F8000D701C601880F991FAA1FBB1F6C017D01B5
:103F90006894C0F8D2CF86E090E090938504809337
:103FA000840481E090E0E8C184819581895491097D
:103FB000C39708F090CE9F012A5F3F4FBF016A5719
:103FC0007F4FC12CD12C7601D9014D915C91495084
:103FD000510949305105B8F07ECE86819781099705
:103FE000099708F073CE10928D0410928C048FEF15
:103FF0009FEFDC018093880490938904A0938A0446
:10400000B0938B0427C0D90112964D915C91139700
:10401000465151094131510500F5D701C601880FBC
:10402000991FAA1FBB1F6C017D016894C0F82C5F0B
:104030003F4F2617370741F620E230E030938D04DA
:1040400020938C04C0928804D0928904E0928A0460
:10405000F0928B0487E090E0A0CFD90112964D91A9
:104060005C911397465051094730510508F033CE03
:10407000CC0CDD1CEE1CFF1CDACF848195810997E6
:10408000099708F058CE868197818C974F9708F052
:1040900052CE8085918589974D9708F04CCE9F012F
:1040A000265F3F4FC12CD12C760145E050E03BCE3E
:1040B0009F0126573F4FD9012D913C912C5031093A
:1040C0002B30310508F037CE20E230E030938D04FC
:1040D00020938C04C0928804D0928904E0928A04D0
:1040E000F0928B0488E090E058CFD90112966D9140
:1040F0007C911397695071096930710508F01BCEE6
:10410000CC0CDD1CEE1CFF1C06CE848195818254F4
:1041100091098E9708F050C08F01045C1F4F8DE10C
:1041200090E040E050E02091C60230E02450310998
:1041300082179307FCF4980122503109D9012D917F
:104140003C912950310928303105B0F5BC016F5F31
:104150007F4FD8012D913C9111972750310927307D
:10416000310500F12D913C91285131092231310561
:1041700000F1CB0101979595879590938D048093DD
:104180008C048A97CCF0052E000C660B770B4093BD
:1041900088045093890460938A0470938B0489E0A7
:1041A00090E0FBCE440F551F416002960C5F1F4FFD
:1041B000BACF440F551FF9CF8091C6028032E1F487
:1041C0008281938106970697B8F484819581099737
:1041D000099790F49F012A5F3F4FBF01625C7F4FB8
:1041E000C12CD12C7601D9014D915C9146505109D9
:1041F0004630510508F47EC080919004909191045E
:104200009E838D8306970CF4B0C08F010E5F1F4F05
:1042100095ECC92E9DE9D92E9CE1E92E91E8F92E65
:1042200023E0222E312CD80114966D917C911597A4
:10423000AD90BC9080E090E00E94562E2B013C0196
:10424000B50180E090E00E94562E4B015C012DEC00
:104250003CEC4CE45FE30E94B72E9B01AC01C30130
:10426000B2010E94512E87FD17C02DEC3CEC4CE4AE
:104270005FE3C301B2010E94B72E9B01AC01C501EF
:10428000B4010E94512EE82F880FFF0BEE27FF0F7D
:10429000EE1FFF27319602C0E0E0F0E0A701960193
:1042A00063E971E080E091E00E9424316F01FF0F2B
:1042B000EE08FF08C626D726E826F926BFEF2B1AF8
:1042C0003B0A0E5F1F4FED81FE812E163F0609F05F
:1042D000AACFC0928804D0928904E0928A04F09216
:1042E0008B0480E290E090938D0480938C048FEF98
:1042F0009FEF53CED90112964D915C91139749517E
:1043000051094331510508F5D701C601880F991F9E
:10431000AA1FBB1F6C017D016894C0F82C5F3F4F42
:104320002617370709F05FCF2EE030E030938D0479
:1043300020938C04C0928804D0928904E0928A046D
:10434000F0928B048FE090E028CED90112964D9127
:104350005C911397495051094930510508F04CCFF1
:10436000CC0CDD1CEE1CFF1CD9CF82E08093C20276
:104370001092C60280E090E026960FB6F894DEBF59
:104380000FBECDBFDF91CF911F910F91FF90EF90A6
:10439000DF90CF90BF90AF909F908F907F906F9065
:1043A0005F904F903F902F9008952F923F924F92A1
:1043B0005F926F927F928F929F92AF92BF92CF92B5
:1043C000DF92EF92FF920F931F93CF93DF93CDB7BE
:1043D000DEB72D970FB6F894DEBF0FBECDBF6C01D0
:1043E0005B01672B09F457C080E00CC1019709F00D
:1043F00005C180917D0590917E05DC01ED91FC91D8
:104400000480F581E02DAE014F5F5F4F6FE10995AC
:104410008111F1C0E8E7F5E0F987E887812C912C5C
:10442000212C312CFF24F394F80C81E090E0082C2F
:1044300002C0880F991F0A94E2F79D878C878C2110
:104440009D21892B09F4C9C0A885B9851996ED91DC
:10445000FC911A97309709F4C0C099818081981710
:1044600009F4BBC081E00E941D2E00917D051091D2
:104470007E05D801ED91FC910284F385E02D4F2D4E
:1044800060E2C8010995662371F0C1018C219D216C
:10449000892B09F0A9CF80917B0590917C0500972D
:1044A00009F0A4CFABC0D801ED91FC910084F18557
:1044B000E02DAE014E5F5F4F64E3C80109956111C5
:1044C000E4CF8A81882309F476C0D801ED91FC916C
:1044D0000084F185E02DAE014F5F5F4F6FE1C801B1
:1044E00009956111D2CF8A81811181E08A83FE0111
:1044F00031967F01412C512C32018A8190E0A0E05D
:10450000B0E0481659066A067B0608F054C0D80188
:10451000ED91FC910284F385E02D41E0440D65E3CB
:10452000C8010995F7013596FB87EA876111ADCF80
:10453000A7014E5F5F4FD801ED91FC910084F1859A
:10454000E02D60E4C8010995A7014D5F5F4FD801D8
:10455000ED91FC910084F185E02D61E4C80109959D
:10456000A7014C5F5F4FD801ED91FC910084F1856C
:10457000E02D62E4C8010995D801ED91FC91008419
:10458000F185E02D4A855B8563E4C8010995A701A3
:104590004A5F5F4FD801ED91FC910084F185E02DD9
:1045A00064E4C8010995BFEF4B1A5B0A6B0A7B0AEA
:1045B000EA84FB84A2CF80E00E941D2EE885F98565
:1045C000A185B28587E0FE01319601900D928A9512
:1045D000E1F78C859D85282A392AEFEF8E1A9E0AED
:1045E0008885998502969987888798E0891691042D
:1045F00009F018CF4ACF212C312C47CFC6010E9499
:10460000D72C44CFC0FC04C0D694C7948F5FFACF98
:10461000E82FF0E0EE0FFF1FE858FA4FA185B285B2
:104620001097E9F08930D8F4E9E0AE16B104B8F497
:10463000F501E15BFF4F0C94543111968C9110C041
:1046400015968C910DC016968C910AC013968C917C
:1046500007C012968C9104C014968C9101C080E022
:1046600090E02D960FB6F894DEBF0FBECDBFDF9160
:10467000CF911F910F91FF90EF90DF90CF90BF905F
:10468000AF909F908F907F906F905F904F903F90F2
:104690002F900895BC018AEA94E00C94960BCF9376
:1046A000DF93EA0191E09093DF038093DE031092A1
:1046B000C0051092BF0587E495E00E942807688135
:1046C00087E495E00E94280761E087E495E00E9476
:1046D000160991E0811190E0892FDF91CF91089523
:1046E0000F931F93CF93DF93C9EAD5E008EE13E051
:1046F0002AEA35E046E063E488810E94B626898193
:104700009A819827892798279093990380939803F3
:104710008B819C8198278927982790939703809372
:1047200096038D819E8198278927982790939503DA
:1047300080939403DF91CF911F910F910895EF9291
:10474000FF920F931F93CF93DF93CDB7DEB7C25481
:10475000D1090FB6F894DEBF0FBECDBF8C0162EF5A
:1047600071E0CE01C7960E94450562EF71E0CE016F
:10477000CD960E944505B8018E010F5F1F4FC801FD
:104780000E942B05A80162E070E0CE01C7960E944E
:10479000DA0CC8010E942605BE01695C7F4FC80182
:1047A0000E942B05C8010E94AB0B7C01C8010E942E
:1047B0002605F7013197E730F10508F0ADC0E85A5A
:1047C000FF4F60E070E00C94543181E090E00E9473
:1047D000D521892B09F440C086E192E00E94E20BCA
:1047E0008DE292E00E944A2361E070E081E090E077
:1047F0000E94D5210E94590C82E392E00E944A2334
:1048000062E070E081E090E00E94D5210E94590CA6
:1048100087E392E00E944A2363E070E081E090E049
:104820000E94D5210E94590C80E492E00E944A2304
:1048300064E070E081E090E00E94D5210E94590C74
:104840008AE492E00E944A2365E070E081E090E013
:104850000E94D5210E94590C68EE73E080E090E040
:104860000E94910D59C082E090E00E94D521892BD1
:1048700099F365E070E082E090E00E94D5217C0130
:1048800063E572E0C8010E9445056AE572E0CE0169
:1048900007960E94450560E672E0CE010D960E94E3
:1048A000450566E672E0CE0143960E9445056AE63C
:1048B00072E0CE0149960E94450561E772E0CE01A3
:1048C0004F960E94450567E772E0CE0185960E94EB
:1048D00045056CE772E0CE018B960E94450561E8C4
:1048E00072E0CE01C1960E94450526E02E9DC001D2
:1048F0002F9D900D1124800F911F0E947F28CE01C3
:10490000C7967C0196E0E91AF108C7010E942605C6
:104910000E151F05B9F7A0CFCE01CD960E94260532
:10492000CE01C7960E942605CE5BDF4F0FB6F894E6
:10493000DEBF0FBECDBFDF91CF911F910F91FF90D2
:10494000EF90089584E090E00E94D521892B09F42E
:1049500083CF88E892E00E94E20B8DE292E00E9411
:104960004A2361E070E084E090E00E94D5210E943B
:10497000590C82E392E00E944A2362E070E084E0F6
:1049800090E00E94D5210E94590C87E392E00E949A
:104990004A2363E070E084E090E00E94D5210E9409
:1049A000590C80E492E00E944A2364E070E084E0C5
:1049B00090E00E94D5210E94590C8AE492E00E9466
:1049C0004A2365E070E084E090E042CF80E190E02F
:1049D0000E94D521892B09F49FCF8DE892E00E9497
:1049E000E20B8DE292E00E944A2361E070E080E1F8
:1049F00090E00E94D5210E94590C82E392E00E942F
:104A00004A2362E070E080E190E00E94D5210E949C
:104A1000590C87E392E00E944A2363E070E080E152
:104A200090E00E94D5210E94590C80E492E00E94FF
:104A30004A2364E070E080E190E00ACF80E290E0F9
:104A40000E94D521892B09F467CF82E992E00E9468
:104A5000E20B8DE292E00E944A2361E070E080E286
:104A600090E00E94D5210E94590C82E392E00E94BE
:104A70004A2362E070E080E290E00E94D5210E942B
:104A8000590C87E392E00E944A2363E070E080E2E1
:104A900090E00E94D5210E94590C80E492E00E948F
:104AA0004A2364E070E080E290E00E94D5210E94F9
:104AB000590C8AE492E00E944A2365E070E080E2AB
:104AC00090E0C6CE80E490E00E94D521892B09F4C5
:104AD00023CF88E992E00E94E20B8DE292E00E94EF
:104AE0004A2361E070E080E490E00E94D5210E94BA
:104AF000590C82E392E00E944A2362E070E080E475
:104B000090E00E94D5210E94590C87E392E00E9418
:104B10004A2363E070E080E490E00E94D5210E9487
:104B2000590C80E492E00E944A2364E070E080E443
:104B300090E00E94D5210E94590C8AE492E00E94E4
:104B40004A2365E070E080E490E082CE80E890E067
:104B50000E94D521892B09F4DFCE80EA92E00E94E1
:104B6000E20B8DE292E00E944A2361E070E080E86F
:104B700090E00E94D5210E94590C82E392E00E94AD
:104B80004A2362E070E080E890E00E94D5210E9414
:104B9000590C87E392E00E944A2363E070E080E8CA
:104BA00090E00E94D5210E94590C80E492E00E947E
:104BB0004A2364E070E080E890E00E94D5210E94E2
:104BC000590C8AE492E00E944A2365E070E080E894
:104BD00090E03ECEEF92FF920F931F93CF93DF931F
:104BE000EC01062F18E08BE1E82E83E0F82E60E060
:104BF00088810E94940100FF02C061E001C060E072
:104C000089810E949401C7010197F1F761E08881D1
:104C10000E949401C7010197F1F70695115039F7E9
:104C2000DF91CF911F910F91FF90EF9008950F9317
:104C30001F93CF93DF938C0160E0FC0180810E9481
:104C40009401C3ECD0E0CE010197F1F760E0F801E8
:104C500081810E94940161E0F80180810E949401A9
:104C6000CE010197F1F761E0F80181810E94940182
:104C7000CE010197F1F761E0F80180810E94940173
:104C80002197F1F7DF91CF911F910F9108950F9325
:104C90001F93CF93DF938C0161E0FC0181810E941F
:104CA0009401C3ECD0E0CE010197F1F761E0F80187
:104CB00080810E949401CE010197F1F760E0F80134
:104CC00081810E949401CE010197F1F760E0F80123
:104CD00080810E9494012197F1F7DF91CF911F917C
:104CE0000F910895CF92DF92EF92FF92CF93DF93CF
:104CF000EC01072E000C880B990B0E94582E6B01BB
:104D00007C0120E030E040E45FE30E94B72E20E029
:104D100030E048E452E40E947C300E94EE30C61736
:104D2000D707D4F020E030E040EA5FE3C701B601E6
:104D30000E94B72E20E030E048E452E40E947C302C
:104D400020E030E040E85FE30E9410300E94EE3047
:104D500021E06C177D070CF420E0822F90E0DF91BA
:104D6000CF91FF90EF90DF90CF9008952F923F92D8
:104D70004F925F926F927F928F929F92AF92BF926B
:104D8000CF92DF92EF92FF920F931F93CF93DF9317
:104D900000D000D000D0CDB7DEB7982E862E4D8340
:104DA00059010E94CB0D6B017C01312C1E82222403
:104DB00023949D81892F90E09C838B832801612C13
:104DC000712CED813E1608F045C02092DF039092D1
:104DD000DE031092C0051092BF05682D87E495E0B0
:104DE0000E94280761E087E495E00E94160920925E
:104DF000DF039092DE031092C0051092BF056B8115
:104E00007C81631971096132710514F060E270E010
:104E1000613208F060E2892D0E94E1001092C20523
:104E20008093C1059091C1058091C205981709F43E
:104E300043C00115110569F10E94CB0DDC01CB01C6
:104E40008C199D09AE09BF0984159505A605B705FE
:104E500000F132C001151105A9F10E94CB0DDC0152
:104E6000CB018C199D09AE09BF0920E030E0801705
:104E70009107A207B30730F1FD812F2F30E04E815B
:104E8000842F440F990B82179307E4F48FEF8E83DE
:104E900019C0F5012E81E20FF11D27FDFA95FA8365
:104EA000E98387E495E00E94DF06E981FA81808347
:104EB000FE81FF5FFE83B6CF8D81813208F080E2F4
:104EC000380E7FCF8E8126960FB6F894DEBF0FBEC8
:104ED000CDBFDF91CF911F910F91FF90EF90DF90A9
:104EE000CF90BF90AF909F908F907F906F905F908A
:104EF0004F903F902F900895BF92CF92DF92EF9204
:104F0000FF920F931F93CF93DF9300D0CDB7DEB7FF
:104F1000F82EE62EC42EB22ED02E08EE13E09E01FF
:104F20002E5F3F4F41E00E94B626882341F14C2D71
:104F300050E04B1951094F5F5F4F81E090E002C094
:104F4000880F991FBA94E2F70197042E01C0880FC9
:104F50000A94EAF72D2D01C0220F4A95EAF7382F5F
:104F600030959A8193238223892B8A838983AE018A
:104F70004F5F5F4F6E2D8F2D0E944F2301C080E049
:104F80000F900F90DF91CF911F910F91FF90EF90B5
:104F9000DF90CF90BF90089588E795E00C94EB09DF
:104FA0001092AD041092AC0488EE93E0A0E0B0E063
:104FB0008093AE049093AF04A093B004B093B10477
:104FC0002AE431E03093AB042093AA0425EC30E0CE
:104FD0003093B7042093B60424EC30E03093B90446
:104FE0002093B80420EC30E03093BB042093BA0443
:104FF00021EC30E03093BD042093BC0422EC30E07F
:105000003093BF042093BE0426EC30E03093C104FB
:105010002093C0041092C3041092C4041092C504DB
:105020001092C60410924A051092490580934B05D0
:1050300090934C05A0934D05B0934E058CE591E0FF
:10504000909348058093470588E68093A905809151
:105050007705A1E9B5E09FEF48EB5BE08C3078F491
:105060008C93282F30E0F901EE0FFF1F2E0F3F1F0A
:10507000F901ED5AFA4F528341838F5F01C09C932F
:10508000139625E0A93AB20749F7809377058EE693
:1050900091E0909379058093780580E680937A0576
:1050A00010927C0510927B0510927E0510927D0572
:1050B0001092800510927F0580E1E1E8F5E0DF01C4
:1050C0001D928A95E9F70895CF93DF93EC0161E093
:1050D00088810E94C30161E089810E94C30161E06F
:1050E00089810E94940161E088810E94940165E0B9
:1050F00070E080E090E0DF91CF910C94910DCF9320
:10510000DF93FC0144815581608171818AEA94E0DA
:105110000E94CB02EC016CEA71E08AEA94E00E9402
:10512000960B8C0F9D1FDF91CF910895EF92FF9208
:105130000F931F93CF93DF93EC01162F042F0E9440
:10514000472660EC610FCE010E94EA2584E9E82E33
:1051500084E0F82E10E0101741F0F70161917F0113
:10516000CE010E94EA251F5FF6CFCE010E941726CE
:10517000CE010E94472668E8CE010E94EA25CE01B2
:10518000DF91CF911F910F91FF90EF900C94172614
:105190008F929F92AF92BF92CF92DF92EF92FF9247
:1051A0000F931F93CF93DF93FC0120813181E09116
:1051B0009004F09191042E173F070CF04FC0F901B5
:1051C000EE0FFF1FA0918E04B0918F04EA0FFB1F1A
:1051D000A080B180217033276901F1E0CF26232B15
:1051E00019F42CE93FEF02C024E630E07A018B018C
:1051F000EC014901840E951EB401C5010E9472267E
:10520000892B99F48E0C9F1CB401C5010E94722653
:10521000892B71F4B701680D791DC5010E947226B2
:10522000892BF9F023E030E005C021E030E002C036
:1052300022E030E0F8018081918101968217930786
:105240001CF49183808308C0F80111821082888148
:105250009981019699838883C60105C081E090E019
:1052600002C08FEF9FEFDF91CF911F910F91FF90C1
:10527000EF90DF90CF90BF90AF909F908F90089568
:10528000BF92CF92DF92EF92FF920F931F93CF9333
:10529000DF93CDB7DEB762970FB6F894DEBF0FBECF
:1052A000CDBF8C01E091A804F091A9043097C9F01A
:1052B00088E391E0918380838091A6049091A70474
:1052C000E817F90759F4A389B4899C9185898095D9
:1052D00089238C931092A7041092A604CF010E94F8
:1052E000443262EF71E0CE0101960E94450562EF03
:1052F00071E0CE0107960E944505B801CE010D96DA
:105300000E942B05AE01435F5F4F62E070E0CE016B
:1053100001960E94DA0CCE010D960E942605BE0170
:105320006F5F7F4FCE010D960E942B05CE010D962B
:105330000E94AB0B6C01CE010D960E942605BE01AA
:10534000695F7F4FCE010D960E942B05CE010D9611
:105350000E94AB0B7C01CE010D960E9426058FE1C9
:1053600090E00E94AC318C01BC2CDC0113961C92A5
:105370001E92129788EE93E0A0E0B0E0F8018483DB
:105380009583A683B78388E391E091838083178A0E
:10539000168A118E108E138E128E158E148E668DB7
:1053A0006E7F6D7F668F6695617081E068278E2DB8
:1053B0000E94940161E08E2D0E94C301C7019927CC
:1053C000FC01EC5FFE4FE491D8015096EC93FC0198
:1053D000E051FF4FE491F0E0EE0FFF1FEA51FF4F65
:1053E00085919491F801928B818B60E08C2D0E94C5
:1053F000C301D8015E968C9181FD04C061E08C2DC3
:105400000E949401F801C48696013327F901EC5FEC
:10541000FE4FE491D8011D96EC931D97F901E051E0
:10542000FF4FE491F0E0EE0FFF1FE452FF4F859134
:105430009491F801978786871093A9040093A80494
:10544000138E128E118E108E178A168A8DE991E0B6
:10545000958F848FF5E1FB1508F45AC08DEB90E031
:1054600057969C938E9356978BE991E059969C930F
:105470008E9358978CE291E05B969C938E935A970B
:1054800050916800B7E0BB1560F441E0EDE0EB152A
:1054900008F040E091E0892F01C0880F4A95EAF7B3
:1054A00001C084E0852B80936800F7E0FB1530F4A1
:1054B0008DE08B1530F48CE690E005C08DE690E031
:1054C00002C08BE690E0D80154969C938E9353973C
:1054D000B7E0BB1530F081E001C0880F2A95EAF7EC
:1054E00010C0EDE06901EB1520F0F8E0CF1AD1080B
:1054F00003C08EE0C81AD10881E001C0880FCA94A9
:10550000EAF7D80155968C938DE991E00197F1F770
:10551000F801828D938D892B49F1E091A604F091D9
:10552000A7040E171F0711F1309739F0A389B4892A
:105530009C918589809589238C93D8015E968C9166
:105540005E978E7F5E968C935E971092A504109264
:10555000A4041093A7040093A6045396ED91FC9124
:105560005497908155968C91892B808383EA91E0A2
:105570000E94E20BCE0107960E942605CE010196FD
:105580000E94260562960FB6F894DEBF0FBECDBF0F
:10559000DF91CF911F910F91FF90EF90DF90CF900F
:1055A000BF9008954F925F926F927F928F929F92D9
:1055B000AF92BF92CF92DF92EF92FF920F931F9321
:1055C000CF93DF93CDB7DEB72E970FB6F894DEBF3B
:1055D0000FBECDBF4C016B015A018901CE0101966E
:1055E0007C018EE0D7011D928A95E9F7D401ED91F7
:1055F000FC910084F185E02D41E0B701C4010995DB
:10560000672B682B692B09F458C089818F3F71F78C
:10561000D401ED91FC910084F185E02D42E0BE01C2
:105620006E5F7F4FC4010995623071058105910558
:1056300009F043C04A814F3010F086EE6FC04350EE
:10564000D401ED91FC910084F185E02DBE016C5FE9
:105650007F4FC40109955A814DEF450F442E512CBF
:10566000612C712C641575058605970531F5252F7C
:1056700030E0FE01E20FF31F90819D3E01F5EFEF58
:10568000FFEFEC0FFD1FE20FF31FA0818EEF850FE0
:10569000F70140E050E0BA0190E09F012E193F0968
:1056A0002817390734F42191420F511D611D711DD6
:1056B000F4CFA41731F084EE31C083E02FC081EE27
:1056C0002DC08C81813109F0B8CF8B81F6018083A8
:1056D0008D81D8018C938E8190E0F5019183808338
:1056E0008F81982F811191E0D80111969C93119789
:1056F0008823A1F0888512968C931297898513963A
:105700008C9313978A8514968C9314978B85159692
:105710008C9315978C8516968C9380E02E960FB6F9
:10572000F894DEBF0FBECDBFDF91CF911F910F91D7
:10573000FF90EF90DF90CF90BF90AF909F908F90B1
:105740007F906F905F904F900895AF92BF92CF92ED
:10575000DF92EF92FF920F931F93CF93DF931F92ED
:10576000CDB7DEB76C0198E7E92E95E0F92E01E0A0
:1057700010E0AA24A394B12CC8010197950102C09E
:10578000220F331F8A95E2F7C9018C219D21892BB5
:1057900009F44FC080917D0590917E05DC01ED916B
:1057A000FC910680F781E02D402F60E20995811180
:1057B0004BC080917D0590917E05DC01ED91FC91BF
:1057C0000480F581E02DAE014F5F5F4F61E20995E6
:1057D00081113AC0498140FF12C0F701818592854D
:1057E000892BF1F487E090E00E94AC31F7019287B9
:1057F0008187DC0111961C9211971C9211C04160A7
:10580000498380917D0590917E05DC01ED91FC91AD
:105810000680F781E02D61E209958823F1F214C03A
:10582000898186958695837090E09093800580931A
:105830007F050F5F1F4FB2E0EB0EF11C0930110521
:1058400009F09ACF10E003C0182F811150C064E115
:1058500070E080E090E00E94910D1092800510921F
:105860007F0581E8E82E85E0F82E01E0F7018191BF
:1058700091917F01892B21F40F5F0930B9F737C06F
:1058800080917D0590917E05DC01ED91FC91068073
:10589000F781E02D402F60E20995811127C08091AA
:1058A0007D0590917E05DC01ED91FC910480F581F0
:1058B000E02DAE014F5F5F4F61E20995811116C087
:1058C0004981842F869586958370B1F2437F498301
:1058D00080917D0590917E05DC01ED91FC91068023
:1058E000F781E02D61E20995882331F2182F812F8D
:1058F0000F90DF91CF911F910F91FF90EF90DF906C
:10590000CF90BF90AF9008951092C2051092C1053C
:105910001092C0051092BF051092BE0581E08093E1
:10592000BD051092BC0561E082E10E94940161E036
:1059300083E10E949401E9EBF0E080818E7F808317
:1059400080818D7F808388E48093B80085E4809394
:10595000BC008EEC96E09093BB058093BA058FEC6B
:1059600096E09093B9058093B8050895CF93C82F1A
:1059700080917D0590917E05DC01ED91FC91068082
:10598000F781E02D41E060E2099581110EC0809120
:105990007D0590917E05DC01ED91FC910680F781FB
:1059A000E02D4C2F69E2CF910994CF9108952F9269
:1059B0003F924F925F926F927F928F929F92AF929F
:1059C000BF92CF92DF92EF92FF920F931F93CF93EC
:1059D000DF93CDB7DEB761970FB6F894DEBF0FBE89
:1059E000CDBF8C0180917F0590918005009749F093
:1059F000E12CF12C039708F006C1CC24C394D12CE0
:105A0000C6C078E7A72E75E0B72EE12CF12CCC2488
:105A1000C394D12C66246394712CA7E03A2E9E0186
:105A20002F5F3F4F49012E0136E0430E511CC60146
:105A30000197D30102C0AA0FBB1F8A95E2F7CD01DF
:105A400080239123892B09F480C0F50181859285FB
:105A5000892B09F47AC080917D0590917E05D4014F
:105A6000E32D1D92EA95E9F7FFEFF9833A8222E1EF
:105A70002C832DEE2F83DC0112962C912B83CD826B
:105A8000F40140E050E0BA012191420F511D611D27
:105A9000711D4E165F06C1F74E83DC01ED91FC913E
:105AA0000284F385E02D47E0B40109959E01285F4B
:105AB0003F4FAE01415F5F4FBE016F5E7F4F8091F0
:105AC0007D0590917E050E94D22A81119CC0298873
:105AD00080917A0582112FC04F855889CA0101979C
